:100000000C94BE010C94D0010C94D0010C94C5202A
:100010000C94DC1D0C94D0010C94D0010C94D001F4
:100020000C94D0010C94D0010C94D0010C940D2EA2
:100030000C94D0010C94D0010C94D0010C94D001FC
:100040000C948E2D0C94D0010C9486030C94160203
:100050000C94D0010C94D0010C94D0010C94D001DC
:100060000C94D0010C94D001BC03BE03F703F7033A
:10007000F703F703F703F703F703F703F703F703B0
:10008000C403C603C803CA03CC03CE03D003D20300
:10009000F703D603D803DA03DC03DE03E003F70338
:1000A000E203D008D608D908DC08E108E908F1081D
:1000B000870987098709F908FC0805090E098709D6
:1000C000870987098709870987091A0924093009D7
:1000D00038093B0944094D095309870987095C0917
:1000E00065097009A10B1A171A17AB0BB60BC10BD8
:1000F000CC0B1A17D00B1A17DE0B1A17E80BF20BE2
:10010000FC0B1A171A171A170C0C190C260C084A94
:10011000D73B3BCE016E84BCBFFDC12F3D6C74311B
:100120009ABD56833DDA3D00C77F11BED9E4BB4C72
:100130003E916BAAAABE000000803F05A84CCDB23C
:10014000D44EB93836A9020C50B9918688083CA61D
:10015000AAAA2ABE000000803F000D0A4772626C06
:1001600020312E3168205B27242720666F7220689B
:10017000656C705D0D0A00244E005B4F50543A00D0
:100180005B5645523A312E31682E32303139303893
:1001900032353A005B544C4F3A005B4739323A00F3
:1001A0003330003238005B4700204700204D0020EC
:1001B000530020460020540033382E005B47433A5A
:1001C00047005B484C503A24242024232024472015
:1001D000244920244E2024783D76616C20244E78DA
:1001E0003D6C696E6520244A3D6C696E6520245320
:1001F0004C50202443202458202448207E202120B5
:100200003F206374726C2D785D0D0A00536C656538
:1002100070696E6700526573746F72696E672073E0
:1002200070696E646C6500526573746F72696E6795
:100230002064656661756C74730050676D20456E4F
:100240006400436865636B204C696D697473004397
:100250006865636B20446F6F720044697361626C00
:10026000656400456E61626C656400436175746924
:100270006F6E3A20556E6C6F636B6564002724487F
:10028000277C2724582720746F20756E6C6F636B52
:1002900000526573657420746F20636F6E74696EAD
:1002A0007565005B4D53473A00414C41524D3A0051
:1002B0007C48653A007C413A007C4F763A007C5796
:1002C000434F3A007C506E3A007C46533A007C42E1
:1002D000663A007C57506F733A007C4D506F733A0A
:1002E00000536C65657000446F6F723A0043686537
:1002F000636B00416C61726D00486F6D65004A6F01
:100300006700486F6C643A0052756E0049646C6512
:10031000000D0A005B5052423A006572726F723AE9
:10032000006F6B0D0A0000007A4300007A43000062
:100330007A430000FA430000FA430000FA4300A0A9
:100340000C4700A00C4700A00C47000048C3000069
:1003500048C3000048C30A000019010AD7233C6FB4
:1003600012033B00007A440000000000000000C8B7
:10037000410000FA43FA000000803F0011241FBE34
:10038000CFEFD8E0DEBFCDBF27E0A0E0B1E001C0F5
:100390001D92A036B207E1F70E946B040C94003D59
:1003A0000C940000CF93DF93239AC0EBD0E083E05E
:1003B000888384E08093B100259A20915B0230917C
:1003C0005C0240915D0250915E0260915702709113
:1003D00058028091590290915A020E9411389B0153
:1003E000AC0160E070E08EE793E40E941139609305
:1003F00000017093010180930201909303018881B1
:100400008F778883DF91CF9108950E94AE1C0E9460
:100410009A1B80910A02811108C00E94EA30892B40
:10042000B1F780910902883091F308951F920F92DD
:100430000FB60F9211248F939F93EF93FF938091A8
:100440006E01E82FF0E0EB5FFE4F90819093C600C5
:100450008F5F893609F480E080936E0190910401EA
:10046000891305C08091C1008F7D8093C100FF91E9
:10047000EF919F918F910F900FBE0F901F90189545
:10048000E091040191E09E0F993631F490E004C0B0
:100490002091070324FD0FC020916E012917C1F39D
:1004A000F0E0EB5FFE4F8083909304018091C100E8
:1004B00080628093C100089590910A02911107C053
:1004C00086FF02C0439A01C0439810921402089517
:1004D0004F925F926F927F928F929F92AF92BF9254
:1004E000CF92DF92EF92FF926B017C0180905B02D2
:1004F00090905C02A0905D02B0905E024090570226
:10050000509058026090590270905A02A3019201D3
:10051000C501B4010E94293B87FF19C060911202F6
:1005200070E080E090E00E94BB392AE037ED43E2C2
:100530005CE30E94693BA70196010E94693B6B0145
:100540007C01A30192010E94293B87FD0AC04092D1
:1005500016025092170260921802709219028FEFE1
:1005600047C0A5019401C701B6010E9407391816BA
:10057000E4F020E030E0A901C701B6010E9407398C
:10058000811109C0109216021092170210921802DF
:10059000109219022DC08092160290921702A0921A
:1005A0001802B092190281E023C0C0921602D092C4
:1005B0001702E0921802F0921902A5019401C701F6
:1005C000B6010E9411382091000130910101409143
:1005D0000201509103010E94693B0E94F63920E01C
:1005E00030E040E85FE30E9412380E948A39862F8B
:1005F000FF90EF90DF90CF90BF90AF909F908F9043
:100600007F906F905F904F9008958093B300811119
:1006100004C08091B0008F7703C08091B0008068E3
:100620008093B000089590910A02911126C0811123
:100630000EC0109216021092170210921802109219
:1006400019028091B0008F778093B00014C0803180
:1006500011F42D9801C02D9A90915F0291FF05C071
:10066000803219F440E050E0BA01CB01BA010E9497
:1006700068020E940503109214020895CF92DF923F
:10068000EF92FF92CF9390910902923079F06A0134
:100690007B01C82F0E940502B701A6018C2FCF91C4
:1006A000FF90EF90DF90CF900C941303CF91FF90C9
:1006B000EF90DF90CF90089560EF71E087E892E0CF
:1006C0000C944B1D8091070384FD1FC080E10E94A4
:1006D000071D8091B0008F778093B0004398909170
:1006E0000902892F8C7221F480910D02867069F0C5
:1006F000943031F480910803811105C086E001C077
:1007000083E00E94F71C0C94A42D08951F920F9271
:100710000FB60F9211242F933F934F935F936F93D4
:100720007F938F939F93AF93BF93EF93FF93E0914A
:10073000C600E13271F028F4E83179F40E946203D6
:1007400056C0EF3321F0EE3741F482E003C081E080
:1007500001C088E00E94071D4AC0E7FF37C08E2F06
:1007600090E0FC01E458F109ED31F10508F03FC0DB
:10077000EC5CFF4F0C94D33C80E2ECCF80910902FB
:1007800085FF35C080E4E6CF81E00DC082E00BC07C
:1007900084E009C088E007C080E105C080E203C0B2
:1007A00080E401C080E80E94EE1C21C081E00BC003
:1007B00082E009C084E007C088E005C080E103C092
:1007C00080E201C080E40E94E51C11C0A091E90212
:1007D00081E08A0F813809F480E09091EA0289175C
:1007E00031F0B0E0A159BE4FEC938093E902FF9144
:1007F000EF91BF91AF919F918F917F916F915F9199
:100800004F913F912F910F900FBE0F901F90189511
:10081000FF920F931F93CF93DF938C01EB01809195
:100820005F0285FF26C0F090090280E2F81629F1E8
:10083000C8010E94101D8823E1F081E080930C0222
:1008400088E0F81641F00E94620382E00E94F71CE3
:100850000E949A1B0EC088E00E94071D0E949A1BEE
:1008600080910A02811105C0809109028111F6CFA1
:10087000EACF80910902823041F10E949A1B809157
:100880000A02811122C09091EE038091ED0398132A
:1008900003C00E94AE1CF1CFBE01C8010E945332BA
:1008A000811113C080915F0281FF0FC0888584FF92
:1008B0000CC04C815D816E817F8180E1DF91CF91A1
:1008C0001F910F91FF900C943E03DF91CF911F91E8
:1008D0000F91FF900895CF93DF93CDB7DEB7619767
:1008E0000FB6F894DEBF0FBECDBF8091C00082600E
:1008F0008093C0001092C50080E18093C400809175
:10090000C10088698093C10080E090E00E94F036C9
:100910008A3009F037C545E550E061E070E08AE1D2
:1009200092E00E94F836892B09F42CC58AB18465BF
:100930008AB9209A8AB1886A8AB9809181008F7EAB
:1009400080938100809181008860809381008091F4
:1009500080008C7F80938000809180008F708093D6
:10096000800080916E00887F80936E0014BC15BC5F
:1009700080916E00816080936E003898409A8091DB
:100980006C00816080936C0080916800826080932D
:1009900068008CE0E0EFF1E0DF011D928A95E9F755
:1009A00078941092090280915F0284FF03C081E075
:1009B00080930902A9E02A2EA2E03A2E992493946A
:1009C0008091090291E1F10111929A95E9F78093E2
:1009D000090284E680931002809311028093120230
:1009E0008CE0ACEFB1E01D928A95E9F71092080215
:1009F00010920703109208031092090310920A0341
:100A00008091E9028093EA0280E4EFE6F2E011923D
:100A10008A95E9F763E972E080E00E943C37811132
:100A200003C087E00E940E1F0E94D2013B9A4398A8
:100A30000E943F240E94FA300E94DA2D0E94422533
:100A40000E945C038AE591E00E94FB1E3A9887B100
:100A5000806387B9449A80E4459A45988150E1F7CC
:100A600080915F0283FF10C00E94F420882361F010
:100A70009092090283EA92E00E94FB1E82E492E0D7
:100A80000E94FB1E0E94962080910902817899F0B5
:100A900083EA92E00E94FB1E8DE792E00E94FB1E1B
:100AA0000E9496209092090210E000E0E2E0EE2E13
:100AB000F4E08F2E29C0109209020E94221FF4CF69
:100AC000E92FF0E0E159FE4F80819F5F913809F4F2
:100AD00090E09093EA028F3FE9F08A3021F50E947E
:100AE0009A1B80910A0281116BCFE12FF0E0E05F49
:100AF000F84F1082F02FF170FF2E00FF18C08BE02E
:100B00000E940E1F10E000E09091EA028091E9023D
:100B10009813D6CF0E94AE1C0E949A1B80910A02A5
:100B2000882391F34DCF8D3009F006C4D8CF809142
:100B30001007882309F4FDC3843209F0F2C3998AAF
:100B400080911107833409F134F4882361F08432F1
:100B500009F006C11AC08A3459F08835B1F08734DB
:100B600009F0FEC012C082EC91E00E94FB1ED7C3C8
:100B7000809109028F7D09F0C2C3809112078D33E5
:100B800009F0C5C30E94CB09BDC390911207911112
:100B9000BEC3833409F4B2C01CF4843239F0BFC33D
:100BA000873469F0883509F4C9C0B9C38091090256
:100BB0008871F82E09F0A3C30E94841FB0C38CEB88
:100BC00091E00E94FB1E80916F028C3838F088EB18
:100BD00091E00E94FB1E80916F028A580E94D51EF0
:100BE00089EA91E00E94FB1E809175028A5C0E9456
:100BF000D51E89EA91E00E94FB1E809173028F5EF0
:100C00000E94D51E89EA91E00E94FB1E809171022C
:100C100025E1281B822F0E94D51E89EA91E00E94BF
:100C2000FB1E80917202865A0E94D51E89EA91E0CD
:100C30000E94FB1E809170029EE5981B892F0E94E6
:100C4000D51E80917602882399F08CEA91E00E946B
:100C5000FB1E80917602833029F08E3139F082308C
:100C600039F404C080E30E94400202C00E94D51EF5
:100C70008CEA91E00E94FB1E80917802803131F075
:100C8000803231F0811107C085E303C083E301C0E6
:100C900084E30E9440028CEA91E00E94FB1E809156
:100CA0007702882311F088E301C089E30E944002A3
:100CB00085EB91E00E94FB1E809182020E94D51E6E
:100CC00082EB91E00E94FB1E60917E0270917F0298
:100CD00080918002909181020E949E1E8FEA91E095
:100CE0000E94FB1E60917A0270917B0280917C02CF
:100CF00090917D0240E00E94011E0EC08091090289
:100D0000823069F40E94620383EA92E00E94FB1E33
:100D10008AE592E00E94FB1E0E94962000C381118A
:100D2000EEC2E092090283EA92E00E94FB1E83E693
:100D300092E00E94FB1E0E9496203BC08091090217
:100D4000813009F0ECC283EA92E00E94FB1E8BE640
:100D500092E00E94FB1E0E94962010920902DFC2C0
:100D600090910902923008F0CAC2893409F49FC0F8
:100D700034F4833271F0883409F45AC044C18235A6
:100D800009F4EBC0833509F480C08E3409F03BC10F
:100D900014C1809112078111BAC210E0BE016F5FC9
:100DA0007F4F812F0E943C37811105C087E00E9450
:100DB0000E1FF12CB4C286EA91E00E94FB1E163091
:100DC00029F0173041F480EA91E002C083EA91E013
:100DD0000E94FB1E04C086E3810F0E94D51E8AE399
:100DE0000E944002CE0101960E94BC1E0E949620E5
:100DF0001F5F183099F68AE991E00E94FB1E8FE987
:100E000092E00E94BC1E0E94962084E991E00E941C
:100E1000FB1E6091AB027091AC028091AD0290918B
:100E2000AE020E94AD1E0E9496200E949B2077C2B7
:100E300080915F0284FF60C2809209028091120754
:100E4000811165C20E94342481E00E94092182E060
:100E50000E9409210E949A1B80910A02811106C0FA
:100E60000E945C030E9442250E943F2480910A0256
:100E7000811155C2109209020E94A42D809112077F
:100E800081114DC20E94221F94CF809112078C3491
:100E900009F03DC280911307803509F038C2809176
:100EA0001407811134C280E80E94071D38C2E98A04
:100EB00080911207811133C040E550E06EEA73E083
:100EC00080E197E00E94F836892B51F410921007C8
:100ED00040E550E060E177E08EEA93E00E9435362D
:100EE00080E891E00E94FB1E0E94B61C0E949620A2
:100EF0008AE791E00E94FB1E86E50E94400283E49F
:100F00000E9440028CE20E9440028FE00E94D51EA7
:100F10008CE20E94400280E80E94D51EFDCEA3E034
:100F2000A98B8D3309F0F3C183E0282F30E0F9015C
:100F3000E05FF84F9081D901A35FB84F9C938F5F1A
:100F400090819111F2CF898B40E550E060E177E02C
:100F50008EEA93E00E943536E2C180911207833514
:100F600009F0D5C180911307843509F0D0C1809173
:100F700014078D3309F0CBC1809116078111C7C1C9
:100F800080911507843239F08A3239F0833209F0C2
:100F9000BEC182E003C081E001C08FEF0E949336A2
:100FA00083EA92E00E94FB1E87E292E00E94FB1E11
:100FB0000E9496200E946203B2C1E98A80911207C2
:100FC00081111DC010E0812F0E94C31C811104C03B
:100FD00087E00E940E1F0EC087E791E00E94FB1E73
:100FE000812F0E94D51E8DE30E9440020E94B61CF4
:100FF0000E940A1F1F5F123009F491C1E4CF9111C2
:101000007EC111E001C010E0BE01635F7F4FCE01E1
:1010100041960E945D37811103C072E0F72E7FC1B7
:10102000E98981E08E0F898BF0E0E05FF84F9081D5
:101030009D3309F06CC1112371F1482F50E0282F26
:1010400030E0F901E05FF84F9081241B350BD901A6
:10105000A05FB84F9C938F5F90819111F0CF898BE7
:101060000E94CB0981114EC16D857E858F8598893F
:101070000E944C3C0E948A39162F0E940502B1E55D
:101080001B9FC001112440E550E060E177E09D5FC7
:101090000E9435368ECEBE016F5F7F4FCE014196E6
:1010A0000E945D37882309F4B8CFE989F0E0E05F5A
:1010B000F84F808181112BC1AD84BE84CF84D88844
:1010C00020E030E04FE753E4C601B5010E94293B20
:1010D00018160CF41CC149805A806B807C80C601B4
:1010E000B5010E948A39062F20E030E0A901C30132
:1010F000B2010E94073987FD07C1043608F440C0D9
:10110000045680E0033098F510E0000F111F000F27
:10111000111F823079F0F801833011F1813019F01C
:10112000E65EFD4F02C0EA5DFD4F40825182628261
:101130007382DFC00E5C1D4F20E030E040E752E4D8
:10114000C301B2010E94693B20E030E040E752E475
:101150000E94693BF8016083718382839383C9C0D5
:10116000E25CFD4F77FA709477F87094DECF8F5F72
:101170000A3008F4CCC0843009F4C9C00A50C2CF88
:10118000C301B2010E944C3C0E948A3910E0013236
:10119000110508F0BCC0F801EF5AFF4F0C94D33C86
:1011A000633008F4B7C060934A02A3C060934D0255
:1011B000A0C060934B0202C060934C020E94732D4A
:1011C00098C080915F02662311F0846090C08B7F8D
:1011D0008EC080915F02662311F0806488C08F7B8F
:1011E00086C080915F02662311F0806880C08F778F
:1011F0007EC060934E027DC040924F0250925002DA
:10120000609251027092520274C040925302509206
:10121000540260925502709256026BC080915F0238
:10122000662311F0816001C08E7F80935F020E946F
:10123000D71D5FC080915F02662321F084FF6DC0DF
:10124000806255C08F7D53C080915F02662311F08C
:10125000886001C0877F80935F020E943F2449C05D
:1012600080915F02662311F0806141C08F7C3FC096
:10127000609360023EC040926102509262026092AE
:1012800063027092640235C0409265025092660219
:1012900060926702709268022CC070E070936A02DC
:1012A0006093690226C040926B0250926C02609279
:1012B0006D0270926E021DC0409257025092580209
:1012C0006092590270925A0208C040925B0250929A
:1012D0005C0260925D0270925E020E94D20109C0BF
:1012E00080915F02662311F0826001C08D7F809340
:1012F0005F020E94723613C055E0F52E10C048E020
:10130000F42E0DC0F82E0BC034E0F32E08C023E0FD
:10131000F22E05C096E0F92E02C08AE0F82E8F2D3D
:1013200008C080910902817211F089E0E9CB0E9426
:10133000CB090E941A1FE6CB002329F0893209F05D
:10134000E3CB0D7FE1CB813208F4DECB8F3209F4A1
:10135000DBCB883289F08B3389F01F3488F4212F5E
:1013600030E01F5F9FE9980FF901E05FF84F9A3175
:1013700008F480528083C8CB02E0C6CB04E0C4CB23
:1013800001E0C2CB87E00E940E1F8FEF0E949336D0
:101390000E94841FCBCA2F923F924F925F926F920E
:1013A0007F928F929F92AF92BF92CF92DF92EF92F5
:1013B000FF920F931F93CF93DF93CDB7DEB7CA543D
:1013C000D1090FB6F894DEBF0FBECDBF8AE3EFEAB6
:1013D000F2E0DF011D928A95E9F78BE0EFE6F2E09B
:1013E000A0EBB2E001900D928A95E1F78091100791
:1013F000843211F00C943B1781E08093B00210927C
:10140000B10283E08A8FB1E0BBA3212C312C1CA652
:101410001BA610E01B8E1F8EEE24E394F12CEAE055
:10142000AE2EB12CF1E68F2EF3E09F2E8A8DE82FA1
:10143000F0E0E05FF84FD080DD2009F437C29FEB89
:101440009D0D9A3110F00C940A178F5F8A8FBE01A0
:101450006A5E7F4FCE014A960E945D37882311F461
:101460000C940C174E885F88688C798CC301B2018C
:101470000E944C3C0E948A39062F70E080E090E088
:101480000E94BB399B01AC01C301B2010E9411381B
:1014900020E030E048EC52E40E94693B0E94D63BD9
:1014A0000E948A39CB01E7E4DE1629F0FDE4DF165D
:1014B00009F4EAC035C1083209F4C6C020F5043188
:1014C00068F4013108F08AC0043009F452C008F40D
:1014D00064C00A3009F445C00C941A170C3109F4A1
:1014E00040C050F4063110F00C941A1725E1201B6F
:1014F0002093B20226E0ADC00E3199F1063209F414
:101500004CC00C941A170D3309F498C0A8F4053395
:1015100081F140F40B3209F47AC0013309F477C049
:101520000C941A170C3310F00C941A176AEC600F15
:101530006093B60229E08DC00C3538F40A3508F006
:1015400053C0003581F10C941A170C3551F00F354A
:1015500010F00C941A172EE5201B2093B10225E001
:1015600078C0009731F42F8D21110C940E1731E0C3
:101570003F8F0093AF02202F2D7F2C3119F00C35B7
:1015800009F064C0009721F00A9711F00C941A1723
:10159000600F6093AF0220E061C04F8D41110C9449
:1015A0000E17A2E0AF8F0093B002063209F050C0D0
:1015B0008431910559F08E31910541F088329105C1
:1015C00029F08233910511F00C941A17B5010E948D
:1015D0007E3C66576093B00221E040C06FEE600F22
:1015E0006093B40222E035C0892B31F466EA600FC3
:1015F0006093B30223E032C06A30710511F00C949D
:101600001A170A3511F40C941A1724E027C0BF8D5D
:10161000B1110C940E17013331F41092B50228E089
:10162000E3E0EF8F1BC00A9711F00C941A17F1E05A
:10163000F093B50228E033E03F8F10C0892B11F002
:101640000C941A172AE00AC027E003C020E001C06A
:1016500021E0892B19F087E10C944217C70102C0E1
:10166000880F991F2A95E2F72BA53CA5282339233B
:10167000232B19F085E10C944217ABA5BCA5A82B30
:10168000B92BBCA7ABA7D2CE892B29F7063018F40B
:10169000033058F016C0083010F40C941A170A30B2
:1016A000F0F00E3159F00C941A17002319F00130A4
:1016B00011F104C0B3E0B093B7021DC00093B702AC
:1016C0001AC0043021F0053031F080E101C080E221
:1016D0008093B90202C01092B9028CE00DC00930AB
:1016E00031F08091B80280648093B80202C01092F9
:1016F000B8028DE001C08BE0F70102C0EE0FFF1FC2
:101700008A95E2F72BA53CA52E233F23232B09F036
:10171000B1CF2BA53CA52E2B3F2B3CA72BA786CECC
:101720008D2DDD0C990BAA0BBB0BFC01E654F109C6
:10173000E531F10510F00C941A17EE58FF4F0C9498
:10174000D33C4092BB025092BC026092BD027092A8
:10175000BE0280E087C04092BF025092C0026092F9
:10176000C1027092C202116081E07CC04092C3024B
:101770005092C4026092C5027092C602126082E06A
:1017800071C04092C7025092C8026092C902709222
:10179000CA02146083E066C00093CB0284E062C09A
:1017A000C301B2010E9483396093CC027093CD02D1
:1017B0008093CE029093CF0285E054C04092D00235
:1017C0005092D1026092D2027092D30286E04AC057
:1017D0004092D4025092D5026092D6027092D70203
:1017E00087E040C04092D8025092D9026092DA025B
:1017F0007092DB0288E036C020E030E04FE753E42F
:10180000C301B2010E94293B181614F40C9410175E
:101810000093DC0289E026C04092DD025092DE0295
:101820006092DF027092E0023B8D31603B8F8AE074
:1018300019C04092E1025092E2026092E30270927B
:10184000E4024B8D42604B8F8BE00CC04092E5026E
:101850005092E6026092E7027092E8028B8D8460FB
:101860008B8F8CE06701082E02C0CC0CDD1C0A9423
:10187000E2F7960122213321232B11F00C94121749
:10188000D40102C0B595A7958A95E2F7A0FF0BC0D9
:1018900020E030E0A901C301B2010E94073987FFAF
:1018A00002C00C9414172C283D28C0CDBB8DBB233F
:1018B00029F0EF8DE11102C0F2E0FF8F25FE0FC08D
:1018C0008091CC029091CD02A091CE02B091CF0236
:1018D00081389649A849B10514F00C9416173BA11C
:1018E000332329F020FC02C00C94201718C08091EB
:1018F000B102813071F44F8D4230E1F58091B00238
:101900008035C1F18823B1F120FC02C00C9420176E
:1019100031C08091700281112DC020FE1BC08091CA
:10192000B202813039F523E333E34BEC51E46091AB
:10193000BB027091BC028091BD029091BE020E94D8
:10194000693B6093BB027093BC028093BD0290938D
:10195000BE0210C080917E0290917F02A091800211
:10196000B09181028093BB029093BC02A093BD0210
:10197000B093BE0230FC10C080917A0290917B023D
:10198000A0917C02B0917D028093D8029093D902FD
:10199000A093DA02B093DB028091AF02843039F475
:1019A00026FC03C08CE10C944217E89426F8809141
:1019B000B402882369F0813029F48FAF1DAE92E024
:1019C0009BAF0BC01FAEA2E0ADAFB1E0BBAF05C097
:1019D000E2E0EFAFF1E0FDAF1BAE8091B2028130EB
:1019E00021F02F8D2330C9F52FC06FEAC62E62E09B
:1019F000D62EE12CF12C3B8DA32EB12CC5010E2C43
:101A000002C0959587950A94E2F780FF12C023E300
:101A100033E34BEC51E4D6019E966D917D918D910F
:101A20009C91D1970E94693BF60166A777A780AB8E
:101A300091ABFFEFEF1AFF0A24E0C20ED11C33E096
:101A4000E316F104D9F6CDCF8091B502813029F4A7
:101A50004B8D443011F00C9418178CE0E3E9F2E060
:101A6000DE01119601900D928A95E1F78BA59CA558
:101A700091FD08C00091AF020A30C9F00C3509F49D
:101A8000B3C01EC18091B602873018F08DE10C946E
:101A9000421790917502891769F3BE016F5F7F4FFE
:101AA0000E943C37882311F40C942E17E3CF9B8DB2
:101AB000911103C08AE10C944217C10180759927E6
:101AC000892B09F46FCF6091D0027091D10280917F
:101AD000D2029091D3020E944C3C0E948A39673016
:101AE000A8F68091CB02843141F0823011F00C9441
:101AF0001A1727FE02C00C941A17AFEA2A2266238F
:101B000019F0615069A703C0B091B602B9A76FEB95
:101B100072E089A50E943C37882311F40C942E179B
:101B20000091CB024090AB025090AC026090AD02AD
:101B30007090AE024FEAE42E42E0F42E5FE6A52E4E
:101B400052E0B52EC12CD12CEB8D8E2E912CC401E0
:101B50000C2C02C0959587950A94E2F780FF35C05A
:101B6000043151F5D501D0962D913D914D915C9167
:101B7000D39758966D917D918D919C915B970E9422
:101B80001138F70126A537A540A951A90E9411389F
:101B9000D70150966D937D938D939C935397B2E0AC
:101BA000CB1213C0A30192010E941138F701608B80
:101BB000718B828B938B09C0F70186A597A5A0A98D
:101BC000B1A9808B918BA28BB38BFFEFCF1ADF0A69
:101BD00024E0E20EF11C34E0A30EB11C43E0C41675
:101BE000D10409F0B4CF3EC18B8D882309F462CFB4
:101BF0004090AB025090AC026090AD027090AE028B
:101C00002FE6822E22E0922EDE0111967D013FEA20
:101C1000C32E32E0D32EA12CB12CE82FF0E0F8A790
:101C2000EFA38FA198A50A2C02C0959587950A94D9
:101C3000E2F780FF29C0D7012D913D914D915C9134
:101C4000F401608D718D828D938D0E941138D601C3
:101C50009E962D913D914D915C91D1970E941138A6
:101C6000F60166A777A780AB91ABF2E0AF1216C082
:101C7000A30192010E941138D6019E966D937D9327
:101C80008D939C93D1970AC0F40180A991A9A2A930
:101C9000B3A9F60186A797A7A0ABB1ABFFEFAF1A28
:101CA000BF0A24E0820E911C34E0E30EF11C44E0F4
:101CB000C40ED11C83E0A816B10409F0B2CFD1C084
:101CC0009F8D933069F40E3109F494C0053309F403
:101CD000C3C00C3109F0C5C06FEB72E086E08DC067
:101CE000AB8DAA2381F3B091B302BFA34090AB02A6
:101CF0005090AC026090AD027090AE028FE6A82EBC
:101D000082E0B82E9FEAE92E92E0F92EFE0131968C
:101D10004F01C12CD12C2A2F30E03AA729A789A541
:101D20009AA50C2C02C0959587950A94E2F780FD40
:101D30000BC0F501808D918DA28DB38DF70186A723
:101D400097A7A0ABB1AB44C0053309F441C0FFA1D4
:101D5000F1112BC0D501D0962D913D914D915C9103
:101D6000D397F40160817181828193810E9412383E
:101D7000D7019E962D913D914D915C91D1970E94F6
:101D80001238F70166A777A780AB91ABF2E0CF12CC
:101D90001FC0A30192010E941238D7019E966D9335
:101DA0007D938D939C93D19713C0F501208D318D38
:101DB000428D538DD7019E966D917D918D919C9111
:101DC000D1970E941238F70166A777A780AB91AB35
:101DD000FFEFCF1ADF0A24E0A20EB11C34E0E30EBD
:101DE000F11C44E0840E911C83E0C816D10409F074
:101DF00096CF69CF6FEB72E087E00E943C37882373
:101E000011F40C942E179B8D911103C019A61F8EEF
:101E100029C0AFE6B2E0EFEAF2E080E090E04B8D5F
:101E2000242F30E0A901082E02C0559547950A9449
:101E3000E2F740FD0AC058964D915D916D917C91FD
:101E40005B97408B518B628B738B01961496349603
:101E50008330910539F705C08091B002823008F0D7
:101E6000EBC719A68091B0028FA3803521F49B8D1A
:101E70009111E4C77AC2AF8DA23009F076C2BFA13A
:101E8000B11104C0EB8DE11170C22AC020E030E036
:101E9000A9016091BB027091BC028091BD0290913A
:101EA000BE020E940739882309F4CAC7FFA1FC3883
:101EB00009F445C240F4F230A9F0F330B1F0F1304A
:101EC00009F053C20AC02FA12E3809F438C208F411
:101ED00033C22F3809F430C248C23B8D311145C29C
:101EE0001F8E43C24BA144604BA38B8D882309F402
:101EF000E1CDBBADAB2FB0E0B8ABAFA7FDADEF2FE1
:101F0000F0E0FCABEBAB81E090E07C010BAC02C0FD
:101F1000EE0CFF1C0A94E2F70DAC02C0880F991F6B
:101F20000A94E2F7E82AF92A2B8D822F90E08E217D
:101F30009F21892B09F486C7FD01EE0FFF1FEE0FCD
:101F4000FF1FE155FD4FAA0FBB1FAA0FBB1FA957CB
:101F5000BD4F2D913D914D915C9166A577A580A9CE
:101F600091A90E9411382B013C01EBA9FCA9EE0FAD
:101F7000FF1FEE0FFF1FE155FD4FABA9BCA9AA0F34
:101F8000BB1FAA0FBB1FA957BD4F2D913D914D916E
:101F90005C9166A577A580A991A90E9411384B0193
:101FA0005C01610130E8C322DD2427FEF5C0E8941E
:101FB00027F84CE050E06DED72E087E892E00E9477
:101FC000F33C892B11F481E25DC78091B20281302C
:101FD000B1F423E333E34BEC51E46091D40270910C
:101FE000D5028091D6029091D7020E94693B6093FE
:101FF000D4027093D5028093D6029093D702809139
:10200000D4029091D502A091D602B091D7028FABA5
:1020100098AFA9AFBAAFA3019201C301B2010E9468
:10202000693B27966CAF7DAF8EAF9FAF2797A50119
:102030009401C501B4010E94693B2B966CAF7DAF42
:102040008EAF9FAF2B9720E030E040E850E46FA9BF
:1020500078AD89AD9AAD0E94693B2FA938AD49ADE5
:102060005AAD0E94693B27962CAD3DAD4EAD5FAD9C
:1020700027970E9411382B962CAD3DAD4EAD5FAD2C
:102080002B970E9411386B017C0120E030E0A90100
:102090000E94073987FDD8C6C701B6010E94083CD7
:1020A0006B017C012B962CAD3DAD4EAD5FAD2B97FA
:1020B00027966CAD7DAD8EAD9FAD27970E941238EF
:1020C0000E94083C9B01AC01C701B60190580E94D8
:1020D00011396B017C019FA1933021F4F7FAF09440
:1020E000F7F8F09420E030E0A9016FA978AD89AD50
:1020F0009AAD0E94073987FF11C0F7FAF094F7F8FC
:10210000F0948FA998ADA9ADBAADB0588093D40220
:102110009093D502A093D602B093D7020FA518A929
:10212000000F111F000F111F01541D4FA701960131
:10213000C501B4010E94693B9B01AC01C301B2011E
:102140000E94113820E030E040E05FE30E94693BEC
:10215000D8016D937D938D939C9313970BA91CA924
:10216000000F111F000F111F01541D4FA7019601F1
:10217000C301B2010E94693BA50194010E9412387B
:1021800020E030E040E05FE30E94693BF8016083BB
:10219000718382839383E9C0212F30E038AF2FAB66
:1021A000E222F322EF2809F451C631EF2322809175
:1021B000B202813009F47BC0EFA5F8A9EE0FFF1F32
:1021C000EE0FFF1FE154FD4FC080D180E280F3800D
:1021D000A7019601C301B2010E9411382B013C01F5
:1021E000EBA9FCA9EE0FFF1FEE0FFF1FE154FD4FFF
:1021F00080819181A281B3818FA798ABA9ABBAAB43
:102200009C01AD01C501B4010E9411384B015C0174
:10221000A3019201C301B2010E94693B2B013C0161
:10222000A5019401C501B4010E94693B9B01AC0169
:10223000C301B2010E9412380E94083C4B015C01AC
:10224000A7019601C701B6010E94693B6B017C01A1
:102250002FA538A949A95AA9CA01B9010E94693B09
:102260009B01AC01C701B6010E9412380E94083CD4
:102270006B017C016093D4027093D5028093D602E7
:102280009093D7029B01AC01C501B4010E941138A3
:102290004B015C01E894B7F82AE037ED43EA5BE3D1
:1022A000C501B4010E94293B18164CF15EC00FEA2B
:1022B00012E08FA998AD0C2C02C0959587950A94D1
:1022C000E2F780FF12C023E333E34BEC51E4D80183
:1022D00050966D917D918D919C9153970E94693B91
:1022E000F801608B718B828B938BFFEFCF1ADF0A23
:1022F0000C5F1F4F23E0C216D104D9F65DCF20E05A
:1023000030E040E05FE3C501B4010E94293B1816AC
:102310000CF459CE2FE632E143E85AE3C701B60187
:102320000E94693B9B01AC01C501B4010E94293B9D
:1023300018160CF448CE19C03BA130613BA38FA105
:102340008E58823018F44BA148604BA38B8D8823A4
:1023500009F4B0CB4CE050E06DED72E087E892E01C
:102360000E94F33C892B09F42ECE2BA121709BA156
:1023700090FF03C0C1018E7D03C0C1018E7D9C7F93
:10238000AF8DA111937E892B09F062C58E01035F89
:102390001F4F89E0F80111928A95E9F7222309F489
:1023A0004BC08BA59CA5867B892B09F053C58091DA
:1023B000AF02853311F081114DC580917A02909161
:1023C0007B02A0917C02B0917D02898B9A8BAB8BB2
:1023D000BC8B9091780280917702892B4091BB024F
:1023E0005091BC026091BD027091BE024D875E8724
:1023F0006F87788B84608D8B80915F0285FF06C02C
:102400008DED92E00E94101D811126C5B8018DED61
:1024100092E00E94080480910902811121C50E9466
:10242000EA30892B09F41CC580E2809309020E94DE
:10243000AD250E943D3014C580915F02F090780276
:1024400081FF26C08FA18150833018F0FBA1F0647A
:10245000FBA32B8D222339F03F8D323021F44BA189
:1024600040684BA315C080E1F81212C080916F0242
:1024700081509BA19074833030F4992349F09BA143
:1024800090629BA305C0911103C0ABA1A062ABA356
:102490008091CC029091CD02A091CE02B091CF025A
:1024A0008093830290938402A0938502B093860266
:1024B0008091B10280937002882311F088E08D8BA7
:1024C0008091BB029091BC02A091BD02B091BE026E
:1024D00080937E0290937F02A0938002B09381024A
:1024E0008D879E87AF87B88B8090D8029090D90255
:1024F000A090DA02B090DB02A501940160917A020B
:1025000070917B0280917C0290917D020E9407393C
:10251000BBA1B074EB2E811103C0EBA1E5FF20C07D
:10252000FF2071F0FBA1F7FD0BC0EE2021F040E091
:1025300050E0BA0102C0B501A4018F2D0E943E03F4
:102540008091D8029091D902A091DA02B091DB0279
:1025500080937A0290937B02A0937C02B0937D02D9
:10256000E1100CC080917A0290917B02A0917C02D4
:10257000B0917D02898B9A8BAB8BBC8B8091DC02F6
:10258000809382028091B90290917802981751F05D
:1025900049895A896B897C890E943E038091B902DE
:1025A000809378029D8980917802892B8D8BF090A1
:1025B000B802809177028F1569F08091090282300C
:1025C00029F00E9405028F2D0E945C028091B802C2
:1025D000809377029D8980917702892B8D8B8091E2
:1025E000AF02843099F4C090D002D090D102E09034
:1025F000D202F090D30280910902823039F00E9419
:10260000050240E0C701B6010E9413258091B40283
:10261000809373028091B202809371022F8D2330D8
:1026200071F58091B50280937402811108C01092F7
:10263000E5021092E6021092E7021092E802C090C2
:10264000E502D090E602E090E702F090E802A701F0
:1026500096016091AB027091AC028091AD029091B5
:10266000AE020E940739882351F0C092AB02D0928B
:10267000AC02E092AD02F092AE020E94D71D8091B2
:10268000B60290917502981769F0809375028CE0FC
:10269000FE013196A3E9B2E001900D928A95E1F72F
:1026A0000E94D71D8091B302809372028091AF0285
:1026B0008632F1F138F48C3109F18E31F9F08A303B
:1026C00069F04FC08C35D1F1863609F441C08832AB
:1026D00009F047C067E872E087E02DC06FEB72E059
:1026E00089A50E947F368091750239A5381339C0BB
:1026F0008CE0EFEBF2E0A3E9B2E025C08D898160C8
:102700008D8B4F8D442329F0B8018DED92E00E940E
:102710000804B8018FEB92E00E9408048CE0EFEB14
:10272000F2E0A7E8B2E001900D928A95E1F719C0B6
:1027300067E872E086E00E947F3613C08CE0EDED22
:10274000F2E0AFE9B2E001900D928A95E1F707C09F
:102750008CE0EFE9F2E0DF011D928A95E9F70E9433
:10276000D71D8091B00280936F02803509F404C3B5
:10277000BF8DB23009F000C3813021F4BE01635F28
:102780007F4F06C0811109C08D8981608D8BB80192
:102790008DED92E00E940804E6C28250823008F07B
:1027A00093C28091D4029091D502A091D602B091AB
:1027B000D7028F8F98A3A9A3BAA3ABAD94E0A99F2A
:1027C00070011124F701E957FD4FF8A7EFA3970116
:1027D00021543D4F3AA729A7D9014D905D906D90A6
:1027E0007C902081318142815381C301B2010E94DA
:1027F00012386BA77CA78DA79EA7EDADB4E0EB9F29
:1028000080011124980129573D4F3CAF2BAFC801DF
:1028100081549D4F9EAF8DAFDC018D909D90AD900A
:10282000BC90F9012081318142815381C501B401FD
:102830000E9412386FA778AB89AB9AAB77FA709485
:1028400077F87094D501C401B0588B8F9C8FAD8FF1
:10285000BE8FF701E352FD4F2BA53CA54DA55EA50C
:1028600060817181828193810E9411386B017C01AA
:10287000F801E352FD4F2FA538A949A95AA9608153
:102880007181828193810E9411384B015C01A70103
:102890009601C301B2010E94693B6BAB7CAB8DAB6F
:1028A0009EABA50194016B8D7C8D8D8D9E8D0E94BC
:1028B000693B9B01AC016BA97CA98DA99EA90E94D3
:1028C00012386BAB7CAB8DAB9EABA5019401C30101
:1028D000B2010E94693B4B015C01A70196016B8D1F
:1028E0007C8D8D8D9E8D0E94693B9B01AC01C50145
:1028F000B4010E9411382BA93CA94DA95EA90E94E0
:1029000091386B017C019BA192FF13C02DEB37E343
:1029100046E055EBC701B6010E94293B87FD1DC06B
:102920002BED3FE049EC50E4C701B6010E9411389D
:1029300012C02DEB37E346E055E3C701B6010E9414
:102940000739181654F02BED3FE049EC50E4C7016D
:10295000B6010E9412386B017C0180905302909066
:102960005402A0905502B09056022F8D38A149A173
:102970005AA1CA01B9010E941238A50194010E940E
:102980001138A50194010E94693B0E94083C4B014B
:102990005C0120E030E040E05FE3C701B6010E9447
:1029A000693B2F8D38A149A15AA10E94693B9F77AD
:1029B000A50194010E9411390E94F6390E948A39BA
:1029C0007CAB6BABDB01AB2B09F4D8CE1D894B0183
:1029D000A12CB12C13FF12C0C501B4010E94B9395A
:1029E0009B01AC016D857E858F8598890E94693B2E
:1029F0006D877E878F87988B177F1D8BC501B401EC
:102A00000E94B9394B015C019B01AC01C701B601C1
:102A10000E9411396BA37CA38DA39EA3EFADB4E0FC
:102A2000EB9FC00111248C0109571D4FFC01E3529B
:102A3000FD4FD8012D913D914D915C916081718147
:102A4000828193810E941138A50194010E9411395D
:102A500027966CAF7DAF8EAF9FAF27972BA13CA180
:102A60004DA15EA1CA01B9010E94693B9B01AC0165
:102A700060E070E080E090E40E9411386B017C011E
:102A80002BEA3AEA4AE25EE36BA17CA18DA19EA10A
:102A90000E94693B4B015C0120E030E040E850E4DB
:102AA000C701B6010E9412389B01AC01C501B401F7
:102AB0000E94693B6FAB78AF89AF9AAF20E030E0FE
:102AC00040E05FE3C701B6010E94693B23966CAF0B
:102AD0007DAF8EAF9FAF23971F8E22242394312C7E
:102AE000EBA9FCA9E215F30509F448CEBF8DBC3073
:102AF00008F044C02B8D3C8D4D8D5E8D23966CADC2
:102B00007DAD8EAD9FAD23970E94693B6B017C012B
:102B1000A30192016FA978AD89AD9AAD0E94693B7E
:102B2000A70196010E9412387B016C01A30192015A
:102B300023966CAD7DAD8EAD9FAD23970E94693B12
:102B40004B015C012B8D3C8D4D8D5E8D6FA978AD59
:102B500089AD9AAD0E94693B9B01AC01C501B401EE
:102B60000E9411382B013C01EF8DEF5FEF8F470181
:102B700056018B8E9C8EAD8EBE8E65C0B10180E0FD
:102B800090E00E94B9392BA13CA14DA15EA10E9409
:102B9000693B6B017C010E940C396B8F7C8F8D8FA0
:102BA0009E8FC701B6010E94FA3B4B015C01A9A5AB
:102BB000BAA5CD90DD90ED90FC90F7FAF094F7F87F
:102BC000F094ADADBEAD8D919D910D90BC91A02DB9
:102BD0008F8F98A3A9A3BAA3A70196016B8D7C8DB3
:102BE0008D8D9E8D0E94693B2B013C012F8D38A15C
:102BF00049A15AA1C501B4010E94693B9B01AC01E6
:102C0000C301B2010E9412382B013C01A7019601B9
:102C1000C501B4010E94693B6B017C012F8D38A175
:102C200049A15AA16B8D7C8D8D8D9E8D0E94693B33
:102C30009B01AC01C701B6010E9411386B8F7C8FDC
:102C40008D8F9E8F1F8EA30192016BA57CA58DA5F4
:102C50009EA50E941238EFA1F8A56083718382833C
:102C600093832B8D3C8D4D8D5E8D6FA578A989A9A1
:102C70009AA90E941238ABADBCAD6D937D938D9334
:102C80009C93139727962CAD3DAD4EAD5FAD279726
:102C9000F80160817181828193810E941238D8018C
:102CA0006D937D938D939C931397BE01635F7F4FCC
:102CB00087E892E00E94080480910A02811153C0C3
:102CC000BFEF2B1A3B0A0CCF8D8984608D8B8091CE
:102CD0000902823009F447C00E94050280910A026D
:102CE00081114AC0FBA1F071FF2E10920E02B801B3
:102CF0008DED92E00E94080481E08093080282E05A
:102D00000E94071D0E949A1B80910A02811134C003
:102D1000809109028111F6CF80910802813081F4FF
:102D2000FF2051F08CE0E0EFF1E0ACEFB1E001907A
:102D30000D928A95E1F707C085E00E94F71C03C059
:102D400081E080930E02109208020E949A1B0E945A
:102D5000DA2D0E94FA300E9442250E949B20809129
:102D60000E0281118CC08CE0EDEDF2E0A7E8B2E03C
:102D700001900D928A95E1F78091B70280937602D7
:102D8000882309F47FC00E94050280917602909109
:102D90000902833041F49230D1F188E00E94071D8E
:102DA0000E949A1B34C081E080936F0210927302DC
:102DB00010927202109270021092750210927802B4
:102DC0001092770284E68093100280931102809320
:102DD0001202923091F063E972E080E00E943C3789
:102DE0008823E1F10E94D71D40E050E0BA0180E065
:102DF0000E94130380E00E945C0283EA92E00E943A
:102E0000FB1E8AE392E00E94FB1E0E949620109215
:102E100076022FC081E036C082E034C088E132C043
:102E200086E230C089E12EC084E02CC08BE12AC04C
:102E300085E228C084E126C08EE124C08FE122C053
:102E400086E120C080E21EC082E21CC083E21AC07C
:102E500084E218C080E116C08FE014C087E012C081
:102E60008CE0EDEDF2E0A7E8B2E001900D928A95DA
:102E7000E1F780E007C01A8E1BA20C94050A0E949D
:102E80005C037ACFC65BDF4F0FB6F894DEBF0FBE90
:102E9000CDBFDF91CF911F910F91FF90EF90DF9009
:102EA000CF90BF90AF909F908F907F906F905F90EA
:102EB0004F903F902F9008953F924F925F926F9264
:102EC0007F928F929F92AF92BF92CF92DF92EF92BA
:102ED000FF920F931F93CF93DF93CDB7DEB7A497E5
:102EE0000FB6F894DEBF0FBECDBF109108031123BB
:102EF00091F181E08093090289EA92E00E94FB1E31
:102F0000812F0E94D51E0E940A1F85EF91E0019734
:102F100039F0EFE9FFE03197F1F700C00000F7CF9B
:102F20001150123030F08FB7F894109208038FBF11
:102F300012C083EA92E00E94FB1E81E992E00E94A7
:102F4000FB1E0E94962080E10E94FD1C80910703D9
:102F500084FFFCCFE8CF10910703112309F4B7C217
:102F600014FF04C081E080930A02CCC310FFBBC1F0
:102F70008CE0E0EFF1E0DE01599601900D928A9528
:102F8000E1F7BE01675E7F4FCE010D960E944B1D9B
:102F90008CE30E944002809109028830E1F058F4ED
:102FA000813099F1A8F0823099F1843009F043C062
:102FB00089EF92E03EC0803229F118F4803171F03F
:102FC0003AC0803441F18038B1F581EE92E031C0F1
:102FD0008CE093E02EC088E093E02BC080910B0240
:102FE00087FD10C082E093E00E94FB1E80910B02DF
:102FF00080FF06C080E31AC082FF17C085FFFACFAA
:1030000081E314C08EEF92E014C083EF92E011C010
:103010008DEE92E00EC087EE92E00E94FB1E809142
:103020000B0283FFE9CF83E301C082E30E944002E9
:1030300002C00E94FB1E80914E02F82FF170BF2E3D
:1030400080FF07C080911502882319F08AED92E075
:1030500053C04090AB025090AC026090AD027090B3
:10306000AE0253E9852E52E0952E9E012F5F3F4F11
:103070007901CE010D966C0100E0F401619171912E
:10308000819191914F0120853185428553850E9420
:103090001238F7016083718382839383023061F475
:1030A000A30192010E941238F70160837183828329
:1030B0009383BB2019F0CACFB11011C0F701208152
:1030C000318142815381F6016081718182819381D6
:1030D0000E941138F60160837183828393830F5FAE
:1030E000F4E0EF0EF11C24E0C20ED11C033029F6EF
:1030F000B110ACCF83ED92E00E94FB1ECE010D9685
:103100000E94BC1E80914E0281FF1FC08EEC92E097
:103110000E94FB1E90910F078091EE03981710F00C
:10312000815F01C08150891B0E94D51E8CE20E94E4
:1031300040028091EA029091E902981710F08058BD
:1031400001C08150891B0E94D51E89EC92E00E942B
:10315000FB1E809109028C7749F0609122037091E7
:103160002303809124039091250303C060E070E065
:10317000CB010E949E1E8CE20E94400260911602CA
:1031800070911702809118029091190240E00E94FC
:10319000011E0E94F420F82E06B100950170802FC8
:1031A0008F29D1F084EC92E00E94FB1EFF2079F081
:1031B000F0FE03C088E50E944002F1FE03C089E5ED
:1031C0000E944002F2FE03C08AE50E9440020023F2
:1031D00019F082E50E94400280911502882321F0B7
:1031E00081508093150212C08EEF8093150280915A
:1031F0001402811103C081E0809314028EEB92E0EF
:103200000E94FB1ECE0101960E94BC1E009114027A
:10321000002321F00150009314023CC08EEF8093F4
:10322000140289EB92E00E94FB1E809110020E9422
:10323000D51E8CE20E944002809111020E94D51E90
:103240008CE20E944002809112020E94D51E809161
:10325000B00087FF05C02D9B02C002E001C001E065
:10326000439B03C040E4F42E03C0002399F0F12CEB
:1032700085EB92E00E94FB1E002339F0013011F42F
:1032800083E501C083E40E944002FF2019F086E438
:103290000E94400280EB92E00E94FB1E44980000D6
:1032A0000000449A0000F12C00E0459A000086B12D
:1032B00082FB882780F9000F082B45988F2D83709B
:1032C000833029F4802F8F708F590E944002F3942D
:1032D00030E4F312EACF8EE30E9440020E940A1FFC
:1032E00081E00E94FD1C812F887E09F467C08091D7
:1032F0000902982F937009F050C08872A1F0809154
:103300000B02807C81F40E944F2D82E080930D029D
:1033100080910902803239F417FDF2C180910B02CD
:10332000806880930B0280910902811103C091E0B3
:1033300090930B0216FF07C085FD05C090910B020C
:10334000906490930B0213FF05C0807E19F480E116
:103350008093090215FF21C083EA92E00E94FB1EC0
:103360008FE492E00E94FB1E0E94962080910B0247
:1033700087FD0EC090910902903439F483FFBCC1DF
:10338000837E826080930B02B7C1903809F0B4C18C
:1033900080910B02806280930B0217FF0CC080911A
:1033A0000902813029F480910B02856080930B0221
:1033B00080E88093090288EE0E94FD1C11FF44C042
:1033C000812F8876F1F580910902803471F4809123
:1033D0000B0285FD0AC084FF03C01092090205C0DC
:1033E00082FF03C0886080930B02809109028823CA
:1033F00081F084FF26C090910B0290FF22C08031A3
:1034000041F480911302882321F088608093130295
:1034100018C010920D020E94EA30892B71F0809141
:103420000B0286FD0AC010920B0288E0809309020D
:103430000E94AD250E943D3004C010920B021092F4
:10344000090282E00E94FD1C12FF41C08091090226
:10345000807D90910B028823D9F080910C0281111C
:1034600017C097FD15C00E944F2D8091EE038093E9
:10347000EC030E940B3180910D0281FF05C09091F9
:103480000B02916090930B02897F80930D021CC008
:1034900097FF0AC010920D020E94FA300E94DA2DA6
:1034A0000E945C030E94422580910B0285FF08C0A8
:1034B0008F77816080930B0280E48093090204C0BF
:1034C00010920B021092090284E00E94FD1C909160
:1034D0000903992309F4ABC08FB7F894109209033C
:1034E0008FBF4091100290FD02C0842F01C084E67E
:1034F00091FD865F92FD8A5093FD8F5F94FD815010
:10350000893C08F088EC8A3008F48AE03091110296
:1035100095FD02C0232F01C024E696FD22E397FD0E
:1035200029E1481303C0231709F481C080931002D6
:1035300020931102109214021091EE0330900F07A5
:1035400089E9D82E96E7E92E26E9F22E0EE732E336
:10355000432E131509F457C0812E912C489CC001AD
:10356000499C900D1124FC01E151FC4F5F01CF01FA
:103570000E947730562E672E782EC92E2D2D3E2D87
:103580004F2D502F0E94293B18164CF42D2D3E2D07
:103590004F2D502F6D2D7E2D8F2D902F08C0252D56
:1035A000362D472D5C2D652D762D872D9C2D0E9467
:1035B000693BF501668B778B808F918F489CC001AA
:1035C000499C900D11249C0121513C4F7901F90136
:1035D00082A093A0A4A0B5A0A501940166897789D3
:1035E000808D918D0E94293B18162CF4F701868A54
:1035F000978AA08EB18E1F5F103109F410E0D52C90
:1036000073010C2DA6CF8D2D9E2DAF2DB02F809345
:10361000030390930403A0930503B09306030E9451
:103620004F2D8091EE038093EC030E940B3110919B
:103630000A03112309F459C08FB7F89410920A03B2
:103640008FBF9091120210FD02C0892F01C084E645
:1036500011FD865F12FD8A5013FD8F5F14FD8150AE
:10366000893C08F088EC8A3008F48AE09817D1F099
:10367000809312028091090281110DC040917A025B
:1036800050917B0260917C0270917D028091780262
:103690000E94130305C080910D02886080930D0283
:1036A000109214028091090215FF0DC0803159F467
:1036B00090911302911102C092E003C090FF03C0E9
:1036C000946090931302107C81F0882311F088732A
:1036D00061F01091770216FF02C01F7B01C01064D9
:1036E000812F0E945C0210937702809109028C7FE7
:1036F00049F00E94AD2506C080E48093090248CEBF
:1037000080E218CEA4960FB6F894DEBF0FBECDBFF0
:10371000DF91CF911F910F91FF90EF90DF90CF90AD
:10372000BF90AF909F908F907F906F905F904F90E1
:103730003F900895CF92DF92EF92FF921F93CF9325
:10374000DF930E945C1780910B02882309F4FEC06E
:103750000E94EA30009771F4C0917802809177025C
:10376000C82BC0907A02D0907B02E0907C02F0904F
:103770007D020EC0FC01C189C073439B02C020E4DE
:1037800001C020E0C22BFC01C6A4D7A4E0A8F1A888
:1037900080915F0281FF03C080E20E94E51CDC2F64
:1037A000D07311E0C07C80910B02882309F4CEC055
:1037B00090910A029111CAC080FFC5C09091090280
:1037C000292F207C09F474C082FD12C010921302CC
:1037D00040E050E0BA0180E00E94130380E00E94C4
:1037E0005C0280910B028D7F846080930B02ABC0E2
:1037F0009038E1F483EA92E00E94FB1E8CE092E0B4
:103800000E94FB1E0E94962040E050E0BA0180E03A
:103810000E94130380E00E945C020E94A42D80910C
:103820000A02811193C00E945C17F9CF903419F4F9
:103830008F7D80930B0280910B0283FF84C0909157
:1038400078029923C1F081FD16C080915F0281FF4B
:1038500006C080910D02886080930D020CC0B701F4
:10386000A6018D2F0E94130341E060E070E080E824
:1038700090E40E94132580917702882371F0809153
:103880000B0281FD0AC08C2F0E945C0241E060E0C7
:1038900070E080E89FE30E94132580910B0281FD78
:1038A00052C0806180930B0282E00E94071D4BC0D2
:1038B000809113028823C9F181FF0DC080917802A5
:1038C0008823B1F040E050E0BA0180E00E94130389
:1038D0001093130238C08C70B1F18091780281117D
:1038E0000AC08091130283FF03C082E00E94071D7B
:1038F0001092130228C083EA92E00E94FB1E85E129
:1039000092E00E94FB1E0E94962080915F0281FF40
:1039100006C080910D02886080930D02E2CFB7014E
:10392000A6018D2F0E941303DCCF80910D0283FF2F
:103930000AC0B701A6018D2F0E94130380910D02CA
:10394000877F80930D020E945C172DCFDF91CF916E
:103950001F91FF90EF90DF90CF9008950E94EA3082
:10396000892B19F082E00C94071D0895CF93DF9303
:10397000C0E1D7E08991882319F00E944002FACF74
:10398000DF91CF910895CF93DF9321E5829FC0010E
:103990001124EC01DD5F40E550E0BE0180E197E0DD
:1039A0000E94F836892B69F4109210070E940502D4
:1039B00040E550E060E177E0CE010E94353680E0DE
:1039C00001C081E0DF91CF9108959FB7F8942091D5
:1039D0000A03822B80930A039FBF08959FB7F89430
:1039E00020910903822B809309039FBF08959FB7FD
:1039F000F894809308039FBF08952FB7F89490918F
:103A0000070380958923809307032FBF08959FB7ED
:103A1000F89420910703822B809307039FBF08959A
:103A2000AF92BF92CF92DF92EF92FF920F931F93CC
:103A3000CF93DF93EC010EE312E05C018CE0A80E63
:103A4000B11CC990D990E990F99020E030E0A9012B
:103A5000C701B6010E94293B18168CF0F80121918C
:103A60003191419151918F01C701B6010E940739EF
:103A700087FD05C0CA15DB0521F780E001C081E0A4
:103A8000DF91CF911F910F91FF90EF90DF90CF903A
:103A9000BF90AF9008954F925F926F927F928F92F6
:103AA0009F92AF92BF92CF92DF92EF92FF920F93CD
:103AB0001F93CF938B016C017B01C0E082E0882EC5
:103AC000912CA12CB12CC11122C0F801408151814F
:103AD0006281738184819581A681B7812A013B012E
:103AE000480E591E6A1E7B1EC301B201A501940136
:103AF0000E94B43CCA01B9010E94BB3920911A024C
:103B000030911B0240911C0250911D0231C0C13006
:103B100001F5F80180819181A281B38144805580B3
:103B200066807780BC01CD01641975098609970903
:103B3000A50194010E94B43CCA01B9010E94BB399D
:103B400020911E0230911F024091200250912102CB
:103B50000FC0F70160817181828193810E94BB391E
:103B6000209122023091230240912402509125029B
:103B70000E941139F60161937193819391936F01C2
:103B8000CF5FF4E0EF0EF11CC33009F09CCFCF9172
:103B90001F910F91FF90EF90DF90CF90BF90AF906B
:103BA0009F908F907F906F905F904F9008950E94AC
:103BB00005021092150208951F920F920FB60F92F0
:103BC00011242F933F934F935F936F937F938F9322
:103BD0009F93AF93BF93EF93FF93309B0E94620339
:103BE000FF91EF91BF91AF919F918F917F916F91D5
:103BF0005F914F913F912F910F900FBE0F901F90AB
:103C000018958F929F92AF92BF92CF92DF92EF92D0
:103C1000FF920F931F93CF93DF93CDB7DEB72D970E
:103C20000FB6F894DEBF0FBECDBF6B017C01042F31
:103C300020E030E0A9010E94073987FF07C08DE22C
:103C40000E944002F7FAF094F7F8F094102F123027
:103C500060F020E030E048EC52E4C701B6010E9479
:103C6000693B6B017C011250F2CF00FF0AC020E0DB
:103C700030E040E251E4C701B6010E94693B6B01AC
:103C80007C0120E030E040E05FE3C701B6010E9424
:103C900012380E94833910E03AE0832E912CA12C37
:103CA000B12C611571058105910591F0EE24E39425
:103CB000F12CEC0EFD1EE10EF11CA50194010E94F9
:103CC000923C605DF7016083B901CA011F5FE9CFD3
:103CD00080E3101748F4E1E0F0E0EC0FFD1FE10F86
:103CE000F11D80831F5FF5CF101313C0FE01E10F9C
:103CF000F11D80E381831F5F0CC0101303C08EE2AF
:103D00000E944002FE01E10FF11D80810E944002ED
:103D100011501111F2CF2D960FB6F894DEBF0FBEE1
:103D2000CDBFDF91CF911F910F91FF90EF90DF906A
:103D3000CF90BF90AF909F908F90089520915F0299
:103D400020FF08C02BE832E441E25DE30E94693BBA
:103D500041E001C040E00C94011E20915F0220FF71
:103D600008C02BE832E441E25DE30E94693B44E095
:103D700001C043E00C94011E0F931F93CF938C015D
:103D8000C0E0F80161917191819191918F010E9440
:103D9000AD1EC23019F08CE20E944002CF5FC330EA
:103DA00081F7CF911F910F910895CF93DF938436C0
:103DB00030F06AE00E94723CC0E3C90F03C0C0E06B
:103DC0008A3030F06AE00E94723CD0E3D90F01C023
:103DD000D0E0805D0E944002DD2319F08D2F0E940B
:103DE0004002CC2329F08C2FDF91CF910C9440021C
:103DF000DF91CF910895CF93DF93FC018491EF0180
:103E00002196882321F00E944002FE01F7CFDF9126
:103E1000CF91089581E193E00C94FB1ECF93C82FBE
:103E20008AE193E00E94FB1E8C2F0E94D51ECF9149
:103E30000C940A1F811104C081E293E00C94FB1ED4
:103E40000C940E1FCF93DF93C0E08C2F0E94C31CF5
:103E500081110EC0109210078EE30E9440020E9452
:103E6000B61C8AE30E94400287E00E940E1F12C027
:103E700080911007882371F00E94CB09D82F8EE320
:103E80000E9440020E94B61C8AE30E9440028D2FCD
:103E90000E941A1FCF5FC230C1F6DF91CF91089503
:103EA000CF92DF92EF92FF92CF93DF93D82F6A01E8
:103EB0007B01C22F84E20E9440028D2F0E94D51EFA
:103EC0008DE30E9440024C2FC701B6010E94011EE3
:103ED000DF91CF91FF90EF90DF90CF900C940A1F6D
:103EE000CF93DF93D82FC62F84E20E9440028D2FFC
:103EF0000E94D51E8DE30E9440028C2F0E94D51E89
:103F0000DF91CF910C940A1FEF92FF920F931F93B2
:103F1000CF93DF9360914A0270E080E00E94701FAF
:103F200060914D0270E081E00E94701F60914B0231
:103F300070E082E00E94701F60914C0270E083E0AC
:103F40000E94701F60915F0262FB662760F970E05B
:103F500084E00E94701F60915F0266FB662760F933
:103F600070E085E00E94701F80915F02082E000CB7
:103F7000990B692F661F6627661F70E086E00E9416
:103F8000701F60914E0270E08AE00E94701F4091A5
:103F90004F0250915002609151027091520223E001
:103FA0008BE00E94501F4091530250915402609147
:103FB00055027091560223E08CE00E94501F6091E0
:103FC0005F02617070E08DE00E94701F60915F027F
:103FD00065FB662760F970E084E10E94701F6091C4
:103FE0005F0263FB662760F970E085E10E94701F45
:103FF00060915F026295617070E086E10E94701FBF
:104000006091600270E087E10E94701F4091610240
:1040100050916202609163027091640223E088E132
:104020000E94501F409165025091660260916702A4
:104030007091680223E089E10E94501F609169023B
:1040400070916A028AE10E94701F40916B02509148
:104050006C0260916D0270916E0223E08BE10E9410
:10406000501F40915702509158026091590270912F
:104070005A0220E08EE10E94501F40915B02509155
:104080005C0260915D0270915E0220E08FE10E940F
:10409000501F60915F026695617070E080E20E943F
:1040A000701FD4E6F12C0AE112E083E0E82EED0E59
:1040B000CD2F82E0F81691F0E3E0FE16E9F0F1E092
:1040C000FF1631F0F80140815181628173811AC07D
:1040D000F801448555856685778514C020E030E079
:1040E00041E655E4F801608D718D828D938D0E94BB
:1040F0001139AB01BC0106C0F80144A155A166A16C
:1041000077A1705823E08C2F0E94501F0C5F1F4F27
:10411000CF5FEC12CECFD65FF394DC3821F6DF917F
:10412000CF911F910F91FF90EF9008958DE50E9420
:1041300040020C940A1FCF93DF93CDB7DEB72C97C4
:104140000FB6F894DEBF0FBECDBF84E193E00E94AE
:10415000FB1E6CEF71E0CE0101960E944B1DCE015B
:1041600001960E94BC1E8AE30E94400280910E02CA
:104170000E94D51E0E9496202C960FB6F894DEBFA2
:104180000FBECDBFDF91CF9108951F920F920FB652
:104190000F9211242F933F934F935F936F937F93CD
:1041A0008F939F93AF93BF93EF93FF9380910902F7
:1041B000813049F080910803811105C00E9462039B
:1041C00081E00E94F71CFF91EF91BF91AF919F9109
:1041D0008F917F916F915F914F913F912F910F90B0
:1041E0000FBE0F901F90189593B1967180915F024A
:1041F00086FD02C086E19827992349F091FB882724
:1042000080F992FD8260907119F08460089580E0D9
:1042100008952F923F924F925F926F927F928F926A
:104220009F92AF92BF92CF92DF92EF92FF920F9345
:104230001F93CF93DF93CDB7DEB7E1970FB6F89416
:10424000DEBF0FBECDBF90910A029111F4C28BA7C1
:10425000FE013D9689E0DF011D928A95E9F786E02F
:104260008D8BEAE1F2E0FA8FE98F9E012A5E3F4FE3
:1042700059014F0100E010E0C12CD12C760134E14E
:10428000332E5BA5452F50E05AA349A3802F202F42
:10429000002321F0013021F090E403C094E001C03C
:1042A00090E1223019F4D5019C9302C0F5013082CF
:1042B00029A13AA102C0359527958A95E2F720FFFA
:1042C00017C020E030E040EC5FEBD40194966D9194
:1042D0007D918D919C9197970E94693B2B013C01A8
:1042E000A70196010E94073987FD02C06201730190
:1042F0000F5F1F4FB4E08B0E911CEFEFAE1ABE0A9A
:104300000330110519F640906502509066026090E6
:1043100067027090680224E0A22EBB24B39460EF81
:1043200071E0CE0101960E944B1D2091F801309161
:10433000F9014091FA015091FB012BA33CA34DA33D
:104340005EA380916002482F50E05DA74CA7CE018C
:1043500001964C01DE015696BC8FAB8F212C312C7F
:1043600000E010E0A701960150582FA338A749A7F5
:104370005AA72D8E89A19AA1022C02C095958795E6
:104380000A94E2F780FFA6C00F5F211034C080912D
:10439000F0019091F101A091F201B091F30120910F
:1043A000F4013091F5014091F6015091F701BC0103
:1043B000CD01621B730B840B950B22E030E040E0D3
:1043C00050E00E94B43C2093F0013093F1014093FF
:1043D000F2015093F30188279927DC01821B930B8C
:1043E000A40BB50B8093F4019093F501A093F60113
:1043F000B093F7013CC04D8D4130A9F58091F0019B
:104400009091F101A091F201B091F3018EA79FA7C5
:10441000A8ABB9AB8091F4019091F501A091F601A0
:10442000B091F7012EA53FA548A959A9280F391F1A
:104430004A1F5B1FCA01B90122E030E040E050E0B2
:104440000E94B43C2093F4013093F5014093F601AF
:104450005093F7012093F0013093F1014093F20162
:104460005093F30104C01BA21CA21DA21EA28CA586
:104470009DA50D8C02C0959587950A94E2F780FF63
:1044800013C0BB2051F08FA198A5A9A5BAA5F4012E
:1044900080839183A283B38319C0D401CD92DD922E
:1044A000ED92FC92139712C0BB2031F0F401C08250
:1044B000D182E282F3820AC02FA138A549A55AA56C
:1044C000D4012D933D934D935C931397EB8DFC8D0D
:1044D0008081182BFFEF2F1A3F0A2B8D3C8D2F5F09
:1044E0003F4F3C8F2B8F34E0830E911C43E024160A
:1044F000310409F03ECF8BA19CA1ADA1BEA1809358
:10450000F8019093F901A093FA01B093FB01602F99
:1045100070E080E090E00E94B9390E94083C9B0165
:10452000AC0110930F02C301B2010E94693B6D8779
:104530007E878F87988BBE01635F7F4FCE01019688
:104540000E94533294E090930D020E94AD250E9488
:104550003D30BB2029F10E94F420788D70956E8942
:104560009F89692B6095FE01769620E030E090E00F
:104570004191412371F0AC01022E02C0559547953F
:104580000A94E2F740FF05C0223011F4172301C05E
:1045900016232F5F3F4F2330310551F710930F0241
:1045A0000E94AD2580910703847339F110910703B0
:1045B00014FF03C086E00E94F71C15FF03C087E0CC
:1045C0000E94F71CB11007C00E94F420ABA58A23FB
:1045D00039F088E003C012FF03C089E00E94F71C95
:1045E00080910803882329F00E9462030E949A1B8D
:1045F00022C184E00E94FD1C04C0812F847509F053
:10460000A8CF0E94DA2D0091690210916A0201156B
:10461000110549F0EFE9FFE03197F1F700C0000024
:1046200001501109F4CFF1E0BF26C9F020E030E0DD
:1046300040EA50E460916B0270916C0280916D02CF
:1046400090916E020E94693B6B017C014090610277
:1046500050906202609063027090640210C0C0903B
:104660006B02D0906C02E0906D02F0906E02409070
:104670006502509066026090670270906802AA948A
:10468000A1104DCE80916002282F30E03C8F2B8FFF
:1046900080906B0290906C02A0906D02B0906E02C0
:1046A000D501C401B0588D8F9E8FAF8FB8A380EF16
:1046B000282E81E0382E92E0492E512C612C712C4D
:1046C00089A19AA1002E02C0959587950A94E2F7D8
:1046D00080FFA1C08B8D9C8D002E02C09595879583
:1046E0000A94E2F7A98DBA8D80FF11C094962D919E
:1046F0003D914D915C919797C501B4010E9412388C
:10470000E98DFA8D208131814281538108C02D913C
:104710003D914D915C916D8D7E8D8F8D98A10E9404
:10472000693B0E94363B6B017C01011135C08091D1
:10473000F0019091F101A091F201B091F30120916B
:10474000F4013091F5014091F6015091F701BC015F
:10475000CD01621B730B840B950BA30192010E9488
:10476000B43CD701C601820F931FA41FB51F8093CD
:10477000F0019093F101A093F201B093F301C21AFA
:10478000D30AE40AF50AC092F401D092F501E0924E
:10479000F601F092F7013FC00130B9F52091F00128
:1047A0003091F1014091F2015091F3018091F401B7
:1047B0009091F501A091F601B091F701280F391FF2
:1047C0004A1F5B1FCA01B901A30192010E94B43CB8
:1047D000D701C601820F931FA41FB51F8093F0015C
:1047E0009093F101A093F201B093F301DA01C901B2
:1047F0008C199D09AE09BF098093F4019093F501CE
:10480000A093F601B093F70106C0D101CD92DD92DD
:10481000ED92FC9213970F5F1F4FB4E02B0E311CEB
:10482000E98DFA8D3496FA8FE98F0330110509F07E
:1048300047CF10920D02E1960FB6F894DEBF0FBE7F
:10484000CDBFDF91CF911F910F91FF90EF90DF903F
:10485000CF90BF90AF909F908F907F906F905F9020
:104860004F903F902F900895EBE6F0E08081897E95
:104870008083E8E6F0E080818E7F8083089584B1B4
:10488000897E84B985B1866185B980915F0283FF95
:104890000BC080916B00866180936B0080916800F3
:1048A00081608093680008950C9434246F927F9205
:1048B0008F929F92AF92BF92CF92DF92EF92FF9230
:1048C0000F931F93CF93DF93EB018C015B018CE07F
:1048D000A80EB11C89E9682E96E7792E26E9822E6A
:1048E0003EE7932EC990D990E990F99020E030E00E
:1048F000A901C701B6010E9407398823B9F0A701B1
:104900009601F80160817181828193810E94113941
:104910006B017C01E894F7F89301A401C701B6018B
:104920000E94293B181614F0360147010C5F1F4FF7
:10493000CA15DB05B9F6B301C401DF91CF911F9110
:104940000F91FF90EF90DF90CF90BF90AF909F902E
:104950008F907F906F9008954F925F926F927F92A9
:10496000AF92BF92CF92DF92EF92FF920F931F937D
:10497000CF93DF93EC015C018CE0A80EB11C8E019B
:10498000C12CD12C7601F801419051906190719029
:104990008F0120E030E0A901C301B2010E94073974
:1049A000882371F0A3019201C301B2010E94693B07
:1049B0009B01AC01C701B6010E9412386B017C015A
:1049C0000A151B0501F7C701B6010E94083C6B01DF
:1049D0007C019B01AC0160E070E080E89FE30E94F5
:1049E00011392B013C01A3019201688179818A81EF
:1049F0009B810E94693B6993799389939993AC1643
:104A0000BD0689F7C701B601DF91CF911F910F91C4
:104A1000FF90EF90DF90CF90BF90AF907F906F901E
:104A20005F904F9008951F93CF93DF93142F20E052
:104A300030E040EA51E40E94693B0E94F0380E9455
:104A40008A39EB012097D1F080910A02811116C0BA
:104A5000111103C00E949A1B06C00E945C1780912E
:104A60000B0281FD0BC02FEF80E792E021508040C8
:104A70009040E1F700C000002197E4CFDF91CF9193
:104A80001F9108954F925F926F927F928F929F92A3
:104A9000AF92BF92CF92DF92EF92FF92CF93DF93CC
:104AA00000D000D0CDB7DEB7E0EFF1E0C080D1801C
:104AB000E280F38044805580668077808085918590
:104AC000A285B38589839A83AB83BC83C301B2017A
:104AD0006C0D7D1D8E1D9F1D22E0822E912CA12C20
:104AE000B12CA50194010E94B43CABEEB2E02D9331
:104AF0003D934D935C931397C701B60164197509F3
:104B000086099709A50194010E94B43C2093EF0205
:104B10003093F0024093F1025093F20289819A811E
:104B2000AB81BC818093F3029093F402A093F502D1
:104B3000B093F6020F900F900F900F90DF91CF91EE
:104B4000FF90EF90DF90CF90BF90AF909F908F90AD
:104B50007F906F905F904F9008952F923F924F9269
:104B60005F926F927F928F929F92AF92BF92CF92FD
:104B7000DF92EF92FF920F931F93CF93DF93CDB706
:104B8000DEB7EC970FB6F894DEBF0FBECDBF8091B5
:104B90000D0280FD6BC790916103809162039817AD
:104BA00009F464C78091EA039091EB03892B09F023
:104BB00015C310910D0212FF09C080910F0722E367
:104BC000289FC001112481519C4F02C00E94EA30ED
:104BD0009093EB038093EA032090EA033090EB0379
:104BE0002114310409F442C700910C03802F817015
:104BF00000FF03C010920C03EAC090910B039F5F6B
:104C0000953009F0892F80930B03E82EF12C32E1C7
:104C10003E9DF0013F9DF00D1124E057FC4FF093B5
:104C20008F03E0938E03D10150969C915097908B07
:104C3000E2E18E9FC001112420E030E04D915D91B2
:104C40006D917D91F901E80FF91FE057FC4F6894D1
:104C500012F8440F551F661F771F1694D1F7408333
:104C60005183628373832C5F3F4F2C30310531F7C2
:104C700022E12E9DF0012F9DF00D11249F01205760
:104C80003C4FF10184859585A685B78543E0880F63
:104C9000991FAA1FBB1F4A95D1F7F90184879587F1
:104CA000A687B787D1011C966D917D918D919C91BE
:104CB0001F970E94B9396093110370931203809378
:104CC000130390931403F101268D378D40A151A158
:104CD0000E9411399B01AC01609315037093160378
:104CE000809317039093180360E070E080EA9FE3DD
:104CF0000E9411396093190370931A0380931B0368
:104D000090931C0310920D0310920E0310920F0348
:104D10001092100311FD02C003FF1FC060912A030F
:104D200070912B0380912C0390912D0360932203AB
:104D30007093230380932403909325039B01AC017C
:104D40000E94693BD10152966D937D938D939C9304
:104D50005597077F00930C030FC0F1016289738997
:104D6000848995890E94083C6093220370932303F1
:104D70008093240390932503F2E1FE9DC001FF9DE3
:104D8000900D11249C0120573C4F7901D901519677
:104D90001C9280915F0281FF1AC0F101818985FF19
:104DA00016C022A533A544A555A560E070E080E8B3
:104DB0009FE30E9411396093360370933703809309
:104DC000380390933903E1E0D7015196EC931092A8
:104DD0001E0310921F031092200310922103D10191
:104DE0005A962D913D914D915C915D9729833A831F
:104DF0004B835C8360E070E080E09FE30E941139A8
:104E00004B015C01F101468C578C60A071A011FF31
:104E10004BC0F2E0F0931D03D1015296CD90DD908E
:104E2000ED90FC905597A70196010E94693B9B016C
:104E3000AC01C301B2010E9411384B015C0120E0BA
:104E400030E0A9010E94073987FF1DC029813A81FE
:104E50004B815C81CA01B9010E941238A301920101
:104E60000E94693B9B01AC01C701B6010E94113849
:104E70000E94083C60932A0370932B0380932C03B9
:104E800090932D03A8C180921E0390921F03A092BD
:104E90002003B092210310922A0310922B03109248
:104EA0002C0310922D0397C110921D0340922E03E4
:104EB00050922F03609230037092310312FF0CC0A6
:104EC00010922A0310922B0310922C0310922D03A0
:104ED000C12CD12C760124C0E091EE03EF5FE031CC
:104EE00009F4E0E080910F078E1759F0B2E3BE9FFE
:104EF000F0011124E151FC4FC288D388E488F58881
:104F000003C0C12CD12C7601C701B6010E94083C18
:104F100060932A0370932B0380932C0390932D03AB
:104F2000C1010E947730698B7A8B8B8B9C8B9B01A4
:104F3000AC010E94693B69877A878B879C87D10186
:104F400052962D913D914D915C9155972D833E83C5
:104F50004F8358870E94073987FF6CC029853A859F
:104F60004B855C856D817E818F8198850E9411388B
:104F7000A50194010E94693B9B01AC01C301B201F0
:104F80000E94113860932E0370932F038093300397
:104F90009093310320E030E0A9010E9407391816F0
:104FA0003CF1B2E0B0931D0329813A814B815C81D1
:104FB000CA01B9010E941238A30192010E94693B03
:104FC0009B01AC016D817E818F8198850E94113893
:104FD0000E94083C60932A0370932B0380932C0358
:104FE00090932D0380910C03886080930C03F3C091
:104FF000A701960169857A858B859C850E94113869
:10500000A50194010E94693B6093320370933303BE
:10501000809334039093350329893A894B895C89BD
:1050200020932603309327034093280350932903AA
:1050300033E0B6C0A70196016D817E818F8198858E
:105040000E941138A50194010E94693BA3019201BD
:105050000E94123820E030E040E05FE30E94693BAC
:105060006D877E878F87988B20E030E0A9010E94B2
:10507000293B18160CF097C02D853E854F85588921
:10508000C301B2010E94293B18160CF088C0A70189
:10509000960169857A858B859C850E941138A501CA
:1050A00094010E94693B9B01AC01609332037093B1
:1050B000330380933403909335036D857E858F850C
:1050C00098890E94293B1816CCF589899A89AB8961
:1050D000BC898093260390932703A0932803B09361
:1050E00029032D813E814F81588569857A858B857D
:1050F0009C850E940739811104C091E090931D03A3
:105100006AC02D813E814F81588569857A858B855E
:105110009C850E941138A50194010E94693B9B0166
:10512000AC01C301B2010E94113860932E03709349
:105130002F0380933003909331034DC02D853E851E
:105140004F85588920932E0330932F0340933003CB
:10515000509331032093320330933303409334034D
:105160005093350329813A814B815C81CA01B90191
:105170000E9412382D853E854F8558890E94693BD3
:10518000A70196010E9412380E94083C60932603F2
:105190007093270380932803909329031CC032E067
:1051A00030931D0318C010922E0310922F031092FB
:1051B00030031092310380912A0390912B03A09128
:1051C0002C03B0912D038093260390932703A09383
:1051D0002803B0932903186010930D0280918D036A
:1051E000482F50E05A8B498B87E0849FF001859FC0
:1051F000F00D1124ED59FC4F80910B038483A09195
:10520000EA03B091EB03BCAFABAF5E96BC91BAA31F
:10521000EBADFCADF78DFBA3ABADBCAD9096BC91F7
:10522000BCA3EBADFCADF1A1FDA32091190330911E
:105230001A0340911B0350911C036AA17BA18B2F81
:105240009F2F0E9411386EA77FA788AB99AB20E0F3
:1052500030E0A9010E94073987FF04C01EA61FA6DF
:1052600018AA19AA209126032E8B309127033F8B71
:1052700040912803488F50912903598F80912E0324
:105280008A8F90912F039B8FA0913003AC8FB091A8
:105290003103BD8FE0911D03ED8BF0913203FEA32E
:1052A000209133032FA33091340338A74091350365
:1052B00049A7509122035983809123038D839091B4
:1052C00024039987A0912503AD87B0911E03BAA747
:1052D000E0911F03EBA7F0912003FCA7209121038D
:1052E0002DA730912A033BAB40912B034CAB50913F
:1052F0002C035DAB80912D038EAB2EA13FA148A561
:1053000059A56A8D7B8D8C8D9D8D0E9407398111E9
:1053100003C092E09AAB02C0A1E0AAAB3AA02BA0D6
:105320000CA11DA18EE3C82E83ECD82E8EE2E82EB0
:1053300089E3F82E412C512C3201CE8EDF8EE8A26B
:10534000F9A23D89313009F4EDC0ABADBCAD3130CF
:1053500008F479C0333009F019C15A962D913D9166
:105360004D915C915D97C701B6010E94693B4B016D
:105370005C012E893F89488D598D69817D818985A0
:105380009D850E9411389B01AC01C501B4010E94AA
:10539000293B87FD31C02A8D3B8D4C8D5D8D6AA1E7
:1053A0007BA18CA19DA10E9411389B01AC010E94A0
:1053B00012386B017C0129813D8149855D856E89AB
:1053C0007F89888D998D0E9412389B01AC01C7019D
:1053D000B6010E9411396B017C01BE89B983EF8946
:1053E000ED83F88DF987298D2D873A8C2B8C0C8DC8
:1053F0001D8D31E03D8B47C120E030E040E05FE3B0
:10540000C501B4010E94693B9B01AC0169817D81AA
:1054100089859D850E941138A70196010E94693BEC
:105420009B01AC01632D722DC8010E941138362EEC
:10543000272E8C01A501940169817D8189859D8537
:105440000E9411386AC05A962D913D914D915C9100
:105450005D97C701B6010E94693B4B015C0120E0EA
:1054600030E040E05FE30E94693B29813D8149854E
:105470005D850E941238A70196010E94693B9B013D
:10548000AC01632D722DC8010E941138362E272ED3
:105490008C01262F372FAC016A8D7B8D8C8D9D8DD5
:1054A0000E94293B18168CF52A8D3B8D4C8D5D8D05
:1054B0006AA17BA18CA19DA10E9411389B01AC0126
:1054C0000E9412386B017C0129813D8149855D85EF
:1054D0006E897F89888D998D0E9412389B01AC015D
:1054E000C701B6010E9411396B017C01BE89B983E5
:1054F000EF89ED83F88DF987298D2D873AA93D8BAA
:105500003A8C2B8C0C8D1D8DBEC0A5019401698138
:105510007D8189859D850E94123869837D83898775
:105520009D87B1C02E893F89488D598DC701B6012D
:105530000E94693B9B01AC01632D722DC8010E9442
:1055400011385B014C019B01AC016EA17FA188A5C4
:1055500099A50E94293B18160CF092C02EA13FA1DC
:1055600048A559A5632D722DC8010E9411382E89B6
:105570003F89488D598D0E9411396B017C013EA0F5
:105580002FA008A519A542E04D8B7DC05A962D91FC
:105590003D914D915C915D97C701B6010E94693BB9
:1055A0004B015C0129813D8149855D850E94073958
:1055B00087FF38C020E030E040E05FE3C501B40180
:1055C0000E94693B9B01AC0169817D8189859D8534
:1055D0000E941138A70196010E94693B9B01AC0112
:1055E000632D722DC8010E9411386FAB78AF89AF5F
:1055F0009AAF2AA53BA54CA55DA50E94293B18168C
:105600008CF4A501940169817D8189859D850E9425
:10561000113869837D8389879D873FA828AC09ADB0
:105620001AAD31C02AA53BA54CA55DA5632D722DF1
:10563000C8010E9411389B01AC010E9412386B0115
:105640007C0129813D8149855D856BA97CA98DA956
:105650009EA90E9412389B01AC01C701B6010E94AD
:1056600011396B017C01BBA9B983ECA9ED83FDA9BC
:10567000F9872EA92D873AA42BA40CA51DA503C03C
:105680003A2C2B2C8401A7019601C301B2010E9480
:1056900012382B013C012E8D3F8D48A159A10E944B
:1056A000073987FF07C0A30192016E8D7F8D88A106
:1056B00099A11BC02EA53FA548A959A9632D722DFC
:1056C000C8010E94293B18161CF52EE333EC4EE26C
:1056D00059E36E8D7F8D88A199A10E9412386E8F3B
:1056E0007F8F88A399A3A30192010E9411386B01B7
:1056F0007C01232D322DA8016AA57BA58CA59DA533
:105700000E94073987FD1DCE3D8930931D0303C0DC
:105710004D8940931D0389819D81A985BD85809315
:10572000220390932303A0932403B0932503E091D5
:105730008E03F0918F039189911104C080910D0225
:1057400083FF3FC0ABADBCAD51968C915197807338
:1057500049F19E96CD90DD90ED90FC90D1979923E4
:10576000D1F02091360330913703409138035091A6
:105770003903609122037091230380912403909157
:1057800025030E94693B9B01AC01C701B6010E9441
:10579000693B6B017C01C701B6010E9468028093DE
:1057A0003A030AC0109216021092170210921802C1
:1057B0001092190210923A0380910D02877F809314
:1057C0000D0247E029893A89429FF001439FF00D7D
:1057D0001124ED59FC4FFA87E98780913A038683BB
:1057E000209115033091160340911703509118032F
:1057F000632D722DC8010E94693B69837A838B8374
:105800009C830E94F0386B017C01609111037091C0
:10581000120380911303909114030E94F0384B01FE
:105820005C01A70196010E9411380E948A396D839C
:105830007E838F839887ED81FE81A985BA85ED935C
:10584000FC93EF2B41F480910D0281FF04C0816035
:1058500080930D020BC120910D0330910E034091F6
:105860000F0350911003C301B2010E9412382B01A3
:105870003C0129813A814B815C81C501B4010E94C0
:1058800011389B01AC01C301B2010E9411394B01D7
:105890005C0120EC31EE44E65EE40E94693B0E942C
:1058A000F0380E948A39603D37E073078105910521
:1058B00060F4A7E049895A89A49FF001A59FF00DE3
:1058C0001124ED59FC4F158253C0603ABFE07B07AD
:1058D0008105910560F447E029893A89429FF001EA
:1058E000439FF00D1124ED59FC4F51E011C060347D
:1058F000AFE17A078105910568F447E029893A8983
:10590000429FF001439FF00D1124ED59FC4F52E0EE
:1059100055830CC027E0A989BA892A9FF0012B9FE3
:10592000F00D1124ED59FC4F33E03583A7E0498990
:105930005A89A49FF001A59FF00D1124ED59FC4F49
:105940002581022E04C096958795779567950A94D0
:10595000D2F74D815E8102C0440F551F2A95E2F7B0
:10596000518340836115710551E08507910568F405
:1059700027E0A989BA892A9FF0012B9FF00D1124F5
:10598000ED59FC4F7383628304C04FEF5FEF538385
:1059900042838091620380938D038F5F863019F07C
:1059A0008093620302C010926203E091EA03F091D7
:1059B000EB03832D922DD801868F978FA0A3B1A3DF
:1059C000C0921103D0921203E0921303F0921403D9
:1059D00029813A814B815C81C701B6010E9411384F
:1059E000A50194010E94693B60930D0370930E031F
:1059F00080930F039093100320911E0330911F0397
:105A00004091200350912103632D722DC8010E9403
:105A100007398111C0C820E030E0A901632D722D43
:105A2000C8010E94293B90910D02181614F092FFB4
:105A300004C0916090930D0219C01092EB03109274
:105A4000EA039091EE0380910F07891709F4A3C828
:105A500081E0890F803109F480E02091EC039213FA
:105A600002C08093EC038093EE0395C8EC960FB6CA
:105A7000F894DEBF0FBECDBFDF91CF911F910F9184
:105A8000FF90EF90DF90CF90BF90AF909F908F905E
:105A90007F906F905F904F903F902F900895CF939D
:105AA000DF93C091EA03D091EB032097C9F0809176
:105AB0000C03816080930C03609122037091230397
:105AC00080912403909125039B01AC010E94693BC6
:105AD0006A8B7B8B8C8B9D8B1092EB031092EA036D
